{
  "contractName": "ShakaCollectible",
  "abi": [
    {
      "constant": true,
      "inputs": [
        {
          "name": "_interfaceId",
          "type": "bytes4"
        }
      ],
      "name": "supportsInterface",
      "outputs": [
        {
          "name": "",
          "type": "bool"
        }
      ],
      "payable": false,
      "stateMutability": "view",
      "type": "function"
    },
    {
      "constant": true,
      "inputs": [],
      "name": "mintingFinished",
      "outputs": [
        {
          "name": "",
          "type": "bool"
        }
      ],
      "payable": false,
      "stateMutability": "view",
      "type": "function"
    },
    {
      "constant": true,
      "inputs": [],
      "name": "name",
      "outputs": [
        {
          "name": "",
          "type": "string"
        }
      ],
      "payable": false,
      "stateMutability": "view",
      "type": "function"
    },
    {
      "constant": true,
      "inputs": [
        {
          "name": "_tokenId",
          "type": "uint256"
        }
      ],
      "name": "getApproved",
      "outputs": [
        {
          "name": "",
          "type": "address"
        }
      ],
      "payable": false,
      "stateMutability": "view",
      "type": "function"
    },
    {
      "constant": false,
      "inputs": [
        {
          "name": "_to",
          "type": "address"
        },
        {
          "name": "_tokenId",
          "type": "uint256"
        }
      ],
      "name": "approve",
      "outputs": [],
      "payable": false,
      "stateMutability": "nonpayable",
      "type": "function"
    },
    {
      "constant": true,
      "inputs": [
        {
          "name": "_operator",
          "type": "address"
        },
        {
          "name": "_role",
          "type": "string"
        }
      ],
      "name": "checkRole",
      "outputs": [],
      "payable": false,
      "stateMutability": "view",
      "type": "function"
    },
    {
      "constant": true,
      "inputs": [],
      "name": "totalSupply",
      "outputs": [
        {
          "name": "",
          "type": "uint256"
        }
      ],
      "payable": false,
      "stateMutability": "view",
      "type": "function"
    },
    {
      "constant": true,
      "inputs": [],
      "name": "InterfaceId_ERC165",
      "outputs": [
        {
          "name": "",
          "type": "bytes4"
        }
      ],
      "payable": false,
      "stateMutability": "view",
      "type": "function"
    },
    {
      "constant": true,
      "inputs": [
        {
          "name": "_operator",
          "type": "address"
        },
        {
          "name": "_role",
          "type": "string"
        }
      ],
      "name": "hasRole",
      "outputs": [
        {
          "name": "",
          "type": "bool"
        }
      ],
      "payable": false,
      "stateMutability": "view",
      "type": "function"
    },
    {
      "constant": false,
      "inputs": [
        {
          "name": "_from",
          "type": "address"
        },
        {
          "name": "_to",
          "type": "address"
        },
        {
          "name": "_tokenId",
          "type": "uint256"
        }
      ],
      "name": "transferFrom",
      "outputs": [],
      "payable": false,
      "stateMutability": "nonpayable",
      "type": "function"
    },
    {
      "constant": true,
      "inputs": [
        {
          "name": "_owner",
          "type": "address"
        },
        {
          "name": "_index",
          "type": "uint256"
        }
      ],
      "name": "tokenOfOwnerByIndex",
      "outputs": [
        {
          "name": "",
          "type": "uint256"
        }
      ],
      "payable": false,
      "stateMutability": "view",
      "type": "function"
    },
    {
      "constant": false,
      "inputs": [
        {
          "name": "minter",
          "type": "address"
        }
      ],
      "name": "removeMinter",
      "outputs": [],
      "payable": false,
      "stateMutability": "nonpayable",
      "type": "function"
    },
    {
      "constant": false,
      "inputs": [
        {
          "name": "_from",
          "type": "address"
        },
        {
          "name": "_to",
          "type": "address"
        },
        {
          "name": "_tokenId",
          "type": "uint256"
        }
      ],
      "name": "safeTransferFrom",
      "outputs": [],
      "payable": false,
      "stateMutability": "nonpayable",
      "type": "function"
    },
    {
      "constant": true,
      "inputs": [
        {
          "name": "_tokenId",
          "type": "uint256"
        }
      ],
      "name": "exists",
      "outputs": [
        {
          "name": "",
          "type": "bool"
        }
      ],
      "payable": false,
      "stateMutability": "view",
      "type": "function"
    },
    {
      "constant": true,
      "inputs": [
        {
          "name": "_index",
          "type": "uint256"
        }
      ],
      "name": "tokenByIndex",
      "outputs": [
        {
          "name": "",
          "type": "uint256"
        }
      ],
      "payable": false,
      "stateMutability": "view",
      "type": "function"
    },
    {
      "constant": true,
      "inputs": [
        {
          "name": "_tokenId",
          "type": "uint256"
        }
      ],
      "name": "ownerOf",
      "outputs": [
        {
          "name": "",
          "type": "address"
        }
      ],
      "payable": false,
      "stateMutability": "view",
      "type": "function"
    },
    {
      "constant": true,
      "inputs": [
        {
          "name": "_owner",
          "type": "address"
        }
      ],
      "name": "balanceOf",
      "outputs": [
        {
          "name": "",
          "type": "uint256"
        }
      ],
      "payable": false,
      "stateMutability": "view",
      "type": "function"
    },
    {
      "constant": false,
      "inputs": [],
      "name": "renounceOwnership",
      "outputs": [],
      "payable": false,
      "stateMutability": "nonpayable",
      "type": "function"
    },
    {
      "constant": false,
      "inputs": [],
      "name": "finishMinting",
      "outputs": [
        {
          "name": "",
          "type": "bool"
        }
      ],
      "payable": false,
      "stateMutability": "nonpayable",
      "type": "function"
    },
    {
      "constant": true,
      "inputs": [],
      "name": "owner",
      "outputs": [
        {
          "name": "",
          "type": "address"
        }
      ],
      "payable": false,
      "stateMutability": "view",
      "type": "function"
    },
    {
      "constant": true,
      "inputs": [],
      "name": "ROLE_MINTER",
      "outputs": [
        {
          "name": "",
          "type": "string"
        }
      ],
      "payable": false,
      "stateMutability": "view",
      "type": "function"
    },
    {
      "constant": true,
      "inputs": [],
      "name": "symbol",
      "outputs": [
        {
          "name": "",
          "type": "string"
        }
      ],
      "payable": false,
      "stateMutability": "view",
      "type": "function"
    },
    {
      "constant": false,
      "inputs": [
        {
          "name": "minter",
          "type": "address"
        }
      ],
      "name": "addMinter",
      "outputs": [],
      "payable": false,
      "stateMutability": "nonpayable",
      "type": "function"
    },
    {
      "constant": false,
      "inputs": [
        {
          "name": "_to",
          "type": "address"
        },
        {
          "name": "_approved",
          "type": "bool"
        }
      ],
      "name": "setApprovalForAll",
      "outputs": [],
      "payable": false,
      "stateMutability": "nonpayable",
      "type": "function"
    },
    {
      "constant": false,
      "inputs": [
        {
          "name": "_from",
          "type": "address"
        },
        {
          "name": "_to",
          "type": "address"
        },
        {
          "name": "_tokenId",
          "type": "uint256"
        },
        {
          "name": "_data",
          "type": "bytes"
        }
      ],
      "name": "safeTransferFrom",
      "outputs": [],
      "payable": false,
      "stateMutability": "nonpayable",
      "type": "function"
    },
    {
      "constant": true,
      "inputs": [],
      "name": "progressiveId",
      "outputs": [
        {
          "name": "",
          "type": "uint256"
        }
      ],
      "payable": false,
      "stateMutability": "view",
      "type": "function"
    },
    {
      "constant": true,
      "inputs": [
        {
          "name": "_tokenId",
          "type": "uint256"
        }
      ],
      "name": "tokenURI",
      "outputs": [
        {
          "name": "",
          "type": "string"
        }
      ],
      "payable": false,
      "stateMutability": "view",
      "type": "function"
    },
    {
      "constant": true,
      "inputs": [
        {
          "name": "_owner",
          "type": "address"
        },
        {
          "name": "_operator",
          "type": "address"
        }
      ],
      "name": "isApprovedForAll",
      "outputs": [
        {
          "name": "",
          "type": "bool"
        }
      ],
      "payable": false,
      "stateMutability": "view",
      "type": "function"
    },
    {
      "constant": false,
      "inputs": [
        {
          "name": "_newOwner",
          "type": "address"
        }
      ],
      "name": "transferOwnership",
      "outputs": [],
      "payable": false,
      "stateMutability": "nonpayable",
      "type": "function"
    },
    {
      "inputs": [
        {
          "name": "_name",
          "type": "string"
        },
        {
          "name": "_symbol",
          "type": "string"
        }
      ],
      "payable": false,
      "stateMutability": "nonpayable",
      "type": "constructor"
    },
    {
      "anonymous": false,
      "inputs": [],
      "name": "MintFinished",
      "type": "event"
    },
    {
      "anonymous": false,
      "inputs": [
        {
          "indexed": true,
          "name": "operator",
          "type": "address"
        },
        {
          "indexed": false,
          "name": "role",
          "type": "string"
        }
      ],
      "name": "RoleAdded",
      "type": "event"
    },
    {
      "anonymous": false,
      "inputs": [
        {
          "indexed": true,
          "name": "operator",
          "type": "address"
        },
        {
          "indexed": false,
          "name": "role",
          "type": "string"
        }
      ],
      "name": "RoleRemoved",
      "type": "event"
    },
    {
      "anonymous": false,
      "inputs": [
        {
          "indexed": true,
          "name": "previousOwner",
          "type": "address"
        }
      ],
      "name": "OwnershipRenounced",
      "type": "event"
    },
    {
      "anonymous": false,
      "inputs": [
        {
          "indexed": true,
          "name": "previousOwner",
          "type": "address"
        },
        {
          "indexed": true,
          "name": "newOwner",
          "type": "address"
        }
      ],
      "name": "OwnershipTransferred",
      "type": "event"
    },
    {
      "anonymous": false,
      "inputs": [
        {
          "indexed": true,
          "name": "_from",
          "type": "address"
        },
        {
          "indexed": true,
          "name": "_to",
          "type": "address"
        },
        {
          "indexed": true,
          "name": "_tokenId",
          "type": "uint256"
        }
      ],
      "name": "Transfer",
      "type": "event"
    },
    {
      "anonymous": false,
      "inputs": [
        {
          "indexed": true,
          "name": "_owner",
          "type": "address"
        },
        {
          "indexed": true,
          "name": "_approved",
          "type": "address"
        },
        {
          "indexed": true,
          "name": "_tokenId",
          "type": "uint256"
        }
      ],
      "name": "Approval",
      "type": "event"
    },
    {
      "anonymous": false,
      "inputs": [
        {
          "indexed": true,
          "name": "_owner",
          "type": "address"
        },
        {
          "indexed": true,
          "name": "_operator",
          "type": "address"
        },
        {
          "indexed": false,
          "name": "_approved",
          "type": "bool"
        }
      ],
      "name": "ApprovalForAll",
      "type": "event"
    },
    {
      "constant": false,
      "inputs": [
        {
          "name": "_beneficiary",
          "type": "address"
        },
        {
          "name": "_mainColor",
          "type": "bytes6"
        },
        {
          "name": "_backgroundColor",
          "type": "bytes6"
        },
        {
          "name": "_borderColor",
          "type": "bytes6"
        },
        {
          "name": "_message",
          "type": "string"
        }
      ],
      "name": "newToken",
      "outputs": [
        {
          "name": "",
          "type": "uint256"
        }
      ],
      "payable": false,
      "stateMutability": "nonpayable",
      "type": "function"
    },
    {
      "constant": true,
      "inputs": [
        {
          "name": "tokenId",
          "type": "uint256"
        }
      ],
      "name": "getToken",
      "outputs": [
        {
          "name": "beneficiary",
          "type": "address"
        },
        {
          "name": "mainColor",
          "type": "bytes6"
        },
        {
          "name": "backgroundColor",
          "type": "bytes6"
        },
        {
          "name": "borderColor",
          "type": "bytes6"
        },
        {
          "name": "message",
          "type": "string"
        }
      ],
      "payable": false,
      "stateMutability": "view",
      "type": "function"
    },
    {
      "constant": false,
      "inputs": [
        {
          "name": "tokenId",
          "type": "uint256"
        }
      ],
      "name": "burn",
      "outputs": [],
      "payable": false,
      "stateMutability": "nonpayable",
      "type": "function"
    }
  ],
  "bytecode": "0x6080604052600e805460ff191690553480156200001b57600080fd5b50604051620021ce380380620021ce8339810160405280516020820151908201910181818181620000757f01ffc9a70000000000000000000000000000000000000000000000000000000064010000000062000190810204565b620000a97f80ac58cd0000000000000000000000000000000000000000000000000000000064010000000062000190810204565b620000dd7f4f558e790000000000000000000000000000000000000000000000000000000064010000000062000190810204565b8151620000f2906005906020850190620001fd565b50805162000108906006906020840190620001fd565b506200013d7f780e9d630000000000000000000000000000000000000000000000000000000064010000000062000190810204565b620001717f5b5e139f0000000000000000000000000000000000000000000000000000000064010000000062000190810204565b5050600c8054600160a060020a0319163317905550620002a292505050565b7fffffffff000000000000000000000000000000000000000000000000000000008082161415620001c057600080fd5b7fffffffff00000000000000000000000000000000000000000000000000000000166000908152602081905260409020805460ff19166001179055565b828054600181600116156101000203166002900490600052602060002090601f016020900481019282601f106200024057805160ff191683800117855562000270565b8280016001018555821562000270579182015b828111156200027057825182559160200191906001019062000253565b506200027e92915062000282565b5090565b6200029f91905b808211156200027e576000815560010162000289565b90565b611f1c80620002b26000396000f3006080604052600436106101955763ffffffff7c010000000000000000000000000000000000000000000000000000000060003504166301ffc9a7811461019a57806305d2035b146101d057806306fdde03146101e5578063081812fc1461026f578063095ea7b3146102a35780630988ca8c146102c957806316b954b01461033057806318160ddd146103d957806319fa8f50146103ee578063217fe6c61461042057806323b872dd146104875780632f745c59146104b15780633092afd5146104d557806342842e0e146104f657806342966c68146105205780634f558e79146105385780634f6ccce7146105505780636352211e1461056857806370a0823114610580578063715018a6146105a15780637d64bcb4146105b65780638da5cb5b146105cb57806392afc33a146105e057806395d89b41146105f5578063983b2d561461060a578063a22cb4651461062b578063b88d4fde14610651578063c3b909d7146106c0578063c87b56dd146106d5578063e4b50cb8146106ed578063e985e9c5146107cb578063f2fde38b146107f2575b600080fd5b3480156101a657600080fd5b506101bc600160e060020a031960043516610813565b604080519115158252519081900360200190f35b3480156101dc57600080fd5b506101bc610832565b3480156101f157600080fd5b506101fa61083b565b6040805160208082528351818301528351919283929083019185019080838360005b8381101561023457818101518382015260200161021c565b50505050905090810190601f1680156102615780820380516001836020036101000a031916815260200191505b509250505060405180910390f35b34801561027b57600080fd5b506102876004356108d2565b60408051600160a060020a039092168252519081900360200190f35b3480156102af57600080fd5b506102c7600160a060020a03600435166024356108ed565b005b3480156102d557600080fd5b5060408051602060046024803582810135601f81018590048502860185019096528585526102c7958335600160a060020a03169536956044949193909101919081908401838280828437509497506109a39650505050505050565b34801561033c57600080fd5b50604080516020600460843581810135601f81018490048402850184019095528484526103c7948235600160a060020a0316946024803579ffffffffffffffffffffffffffffffffffffffffffffffffffff1990811696604435821696606435909216953695929460a49490939101918190840183828082843750949750610a119650505050505050565b60408051918252519081900360200190f35b3480156103e557600080fd5b506103c7610b37565b3480156103fa57600080fd5b50610403610b3d565b60408051600160e060020a03199092168252519081900360200190f35b34801561042c57600080fd5b5060408051602060046024803582810135601f81018590048502860185019096528585526101bc958335600160a060020a0316953695604494919390910191908190840183828082843750949750610b619650505050505050565b34801561049357600080fd5b506102c7600160a060020a0360043581169060243516604435610bd4565b3480156104bd57600080fd5b506103c7600160a060020a0360043516602435610c77565b3480156104e157600080fd5b506102c7600160a060020a0360043516610cc4565b34801561050257600080fd5b506102c7600160a060020a0360043581169060243516604435610d0b565b34801561052c57600080fd5b506102c7600435610d2c565b34801561054457600080fd5b506101bc600435610d97565b34801561055c57600080fd5b506103c7600435610db4565b34801561057457600080fd5b50610287600435610de9565b34801561058c57600080fd5b506103c7600160a060020a0360043516610e13565b3480156105ad57600080fd5b506102c7610e46565b3480156105c257600080fd5b506101bc610eb4565b3480156105d757600080fd5b50610287610f7c565b3480156105ec57600080fd5b506101fa610f8b565b34801561060157600080fd5b506101fa610fb0565b34801561061657600080fd5b506102c7600160a060020a0360043516611011565b34801561063757600080fd5b506102c7600160a060020a03600435166024351515611055565b34801561065d57600080fd5b50604080516020601f6064356004818101359283018490048402850184019095528184526102c794600160a060020a0381358116956024803590921695604435953695608494019181908401838280828437509497506110d99650505050505050565b3480156106cc57600080fd5b506103c76110fb565b3480156106e157600080fd5b506101fa600435611101565b3480156106f957600080fd5b506107056004356111b6565b60408051600160a060020a038716815279ffffffffffffffffffffffffffffffffffffffffffffffffffff19808716602080840191909152868216938301939093528416606082015260a06080820181815284519183019190915283519192909160c084019185019080838360005b8381101561078c578181015183820152602001610774565b50505050905090810190601f1680156107b95780820380516001836020036101000a031916815260200191505b50965050505050505060405180910390f35b3480156107d757600080fd5b506101bc600160a060020a0360043581169060243516611335565b3480156107fe57600080fd5b506102c7600160a060020a0360043516611363565b600160e060020a03191660009081526020819052604090205460ff1690565b600e5460ff1681565b60058054604080516020601f60026000196101006001881615020190951694909404938401819004810282018101909252828152606093909290918301828280156108c75780601f1061089c576101008083540402835291602001916108c7565b820191906000526020600020905b8154815290600101906020018083116108aa57829003601f168201915b505050505090505b90565b600090815260026020526040902054600160a060020a031690565b60006108f882610de9565b9050600160a060020a03838116908216141561091357600080fd5b33600160a060020a038216148061092f575061092f8133611335565b151561093a57600080fd5b600082815260026020526040808220805473ffffffffffffffffffffffffffffffffffffffff1916600160a060020a0387811691821790925591518593918516917f8c5be1e5ebec7d5bd14f71427d1e84f3dd0314c0f7b2291e5b200ac8c7c3b92591a4505050565b610a0d82600d836040518082805190602001908083835b602083106109d95780518252601f1990920191602091820191016109ba565b51815160209384036101000a6000190180199092169116179052920194855250604051938490030190922092915050611383565b5050565b600080610a2a6001600f5461139890919063ffffffff16565b9050610a3687826113a5565b6040805160808101825279ffffffffffffffffffffffffffffffffffffffffffffffffffff1980891682528781166020808401918252918816838501908152606084018881526000878152601085529590952084518154935192517a010000000000000000000000000000000000000000000000000000908190046c010000000000000000000000000271ffffffffffff00000000000000000000000019948290046601000000000000026bffffffffffff000000000000199290930465ffffffffffff199096169590951716179190911691909117815592518051929392610b259260018501920190611dd4565b505050600f8190559695505050505050565b60095490565b7f01ffc9a70000000000000000000000000000000000000000000000000000000081565b6000610bcd83600d846040518082805190602001908083835b60208310610b995780518252601f199092019160209182019101610b7a565b51815160209384036101000a600019018019909216911617905292019485525060405193849003019092209291505061144e565b9392505050565b610bde338261146d565b1515610be957600080fd5b600160a060020a0383161515610bfe57600080fd5b600160a060020a0382161515610c1357600080fd5b610c1d83826114cc565b610c27838261153b565b610c318282611642565b8082600160a060020a031684600160a060020a03167fddf252ad1be2c89b69c2b068fc378daa952ba7f163c4a11628f55a4df523b3ef60405160405180910390a4505050565b6000610c8283610e13565b8210610c8d57600080fd5b600160a060020a0383166000908152600760205260409020805483908110610cb157fe5b9060005260206000200154905092915050565b600c54600160a060020a03163314610cdb57600080fd5b610d0881604080519081016040528060068152602001600080516020611ed183398151915281525061168b565b50565b610d2783838360206040519081016040528060008152506110d9565b505050565b600c54600090600160a060020a03163314610d475733610d50565b610d5082610de9565b9050610d5c818361179c565b6000828152601060205260408120805471ffffffffffffffffffffffffffffffffffff1916815590610d916001830182611e52565b50505050565b600090815260016020526040902054600160a060020a0316151590565b6000610dbe610b37565b8210610dc957600080fd5b6009805483908110610dd757fe5b90600052602060002001549050919050565b600081815260016020526040812054600160a060020a0316801515610e0d57600080fd5b92915050565b6000600160a060020a0382161515610e2a57600080fd5b50600160a060020a031660009081526003602052604090205490565b600c54600160a060020a03163314610e5d57600080fd5b600c54604051600160a060020a03909116907ff8df31144d9c2f0f6b59d69b8b98abd5459d07f2742c4df920b25aae33c6482090600090a2600c805473ffffffffffffffffffffffffffffffffffffffff19169055565b600c54600090600160a060020a03163314610ece57600080fd5b600e5460ff1615610f4057604080517f08c379a000000000000000000000000000000000000000000000000000000000815260206004820152601360248201527f4d696e74696e672069732066696e697368656400000000000000000000000000604482015290519081900360640190fd5b600e805460ff191660011790556040517fae5184fba832cb2b1f702aca6117b8d265eaf03ad33eb133f19dde0f5920fa0890600090a150600190565b600c54600160a060020a031681565b6040805180820190915260068152600080516020611ed1833981519152602082015281565b60068054604080516020601f60026000196101006001881615020190951694909404938401819004810282018101909252828152606093909290918301828280156108c75780601f1061089c576101008083540402835291602001916108c7565b600c54600160a060020a0316331461102857600080fd5b610d0881604080519081016040528060068152602001600080516020611ed1833981519152815250611896565b600160a060020a03821633141561106b57600080fd5b336000818152600460209081526040808320600160a060020a03871680855290835292819020805460ff1916861515908117909155815190815290519293927f17307eab39ab6107e8899845ad3d59bd9653f200f220920489ca2b5937696c31929181900390910190a35050565b6110e4848484610bd4565b6110f084848484611968565b1515610d9157600080fd5b600f5481565b606061110c82610d97565b151561111757600080fd5b6000828152600b602090815260409182902080548351601f6002600019610100600186161502019093169290920491820184900484028101840190945280845290918301828280156111aa5780601f1061117f576101008083540402835291602001916111aa565b820191906000526020600020905b81548152906001019060200180831161118d57829003601f168201915b50505050509050919050565b600080600080606060006111c987610d97565b151561123657604080517f08c379a000000000000000000000000000000000000000000000000000000000815260206004820152601160248201527f546f6b656e206d75737420657869737473000000000000000000000000000000604482015290519081900360640190fd5b50600086815260106020526040902061124e87610de9565b815460018084018054604080516020601f600260001997861615610100029790970190941695909504928301859004850281018501909152818152949a507a0100000000000000000000000000000000000000000000000000008085029a5066010000000000008504810299506c01000000000000000000000000909404909302965091908301828280156113245780601f106112f957610100808354040283529160200191611324565b820191906000526020600020905b81548152906001019060200180831161130757829003601f168201915b505050505091505091939590929450565b600160a060020a03918216600090815260046020908152604080832093909416825291909152205460ff1690565b600c54600160a060020a0316331461137a57600080fd5b610d0881611ad5565b61138d828261144e565b1515610a0d57600080fd5b81810182811015610e0d57fe5b600e5460ff161561141757604080517f08c379a000000000000000000000000000000000000000000000000000000000815260206004820152601360248201527f4d696e74696e672069732066696e697368656400000000000000000000000000604482015290519081900360640190fd5b61144433604080519081016040528060068152602001600080516020611ed18339815191528152506109a3565b610a0d8282611b53565b600160a060020a03166000908152602091909152604090205460ff1690565b60008061147983610de9565b905080600160a060020a031684600160a060020a031614806114b4575083600160a060020a03166114a9846108d2565b600160a060020a0316145b806114c457506114c48185611335565b949350505050565b81600160a060020a03166114df82610de9565b600160a060020a0316146114f257600080fd5b600081815260026020526040902054600160a060020a031615610a0d576000908152600260205260409020805473ffffffffffffffffffffffffffffffffffffffff1916905550565b600080600061154a8585611ba2565b600084815260086020908152604080832054600160a060020a038916845260079092529091205490935061158590600163ffffffff611c3816565b600160a060020a0386166000908152600760205260409020805491935090839081106115ad57fe5b90600052602060002001549050806007600087600160a060020a0316600160a060020a03168152602001908152602001600020848154811015156115ed57fe5b6000918252602080832090910192909255600160a060020a0387168152600790915260409020805490611624906000198301611e96565b50600093845260086020526040808520859055908452909220555050565b600061164e8383611c4a565b50600160a060020a039091166000908152600760209081526040808320805460018101825590845282842081018590559383526008909152902055565b6116f582600d836040518082805190602001908083835b602083106116c15780518252601f1990920191602091820191016116a2565b51815160209384036101000a6000190180199092169116179052920194855250604051938490030190922092915050611cda565b81600160a060020a03167fd211483f91fc6eff862467f8de606587a30c8fc9981056f051b897a418df803a826040518080602001828103825283818151815260200191508051906020019080838360005b8381101561175e578181015183820152602001611746565b50505050905090810190601f16801561178b5780820380516001836020036101000a031916815260200191505b509250505060405180910390a25050565b60008060006117ab8585611cfc565b6000848152600b602052604090205460026000196101006001841615020190911604156117e9576000848152600b602052604081206117e991611e52565b6000848152600a602052604090205460095490935061180f90600163ffffffff611c3816565b915060098281548110151561182057fe5b906000526020600020015490508060098481548110151561183d57fe5b6000918252602082200191909155600980548490811061185957fe5b6000918252602090912001556009805490611878906000198301611e96565b506000938452600a6020526040808520859055908452909220555050565b61190082600d836040518082805190602001908083835b602083106118cc5780518252601f1990920191602091820191016118ad565b51815160209384036101000a6000190180199092169116179052920194855250604051938490030190922092915050611d4c565b81600160a060020a03167fbfec83d64eaa953f2708271a023ab9ee82057f8f3578d548c1a4ba0b5b700489826040518080602001828103825283818151815260200191508051906020019080838360008381101561175e578181015183820152602001611746565b60008061197d85600160a060020a0316611d71565b151561198c5760019150611acc565b6040517f150b7a020000000000000000000000000000000000000000000000000000000081523360048201818152600160a060020a03898116602485015260448401889052608060648501908152875160848601528751918a169463150b7a0294938c938b938b93909160a490910190602085019080838360005b83811015611a1f578181015183820152602001611a07565b50505050905090810190601f168015611a4c5780820380516001836020036101000a031916815260200191505b5095505050505050602060405180830381600087803b158015611a6e57600080fd5b505af1158015611a82573d6000803e3d6000fd5b505050506040513d6020811015611a9857600080fd5b5051600160e060020a031981167f150b7a020000000000000000000000000000000000000000000000000000000014925090505b50949350505050565b600160a060020a0381161515611aea57600080fd5b600c54604051600160a060020a038084169216907f8be0079c531659141344cd1fd0a4f28419497f9722a3daafe3b4186f6b6457e090600090a3600c805473ffffffffffffffffffffffffffffffffffffffff1916600160a060020a0392909216919091179055565b611b5d8282611d79565b600980546000838152600a60205260408120829055600182018355919091527f6e1540171b6c0c960b71a7020d9f60077f6af931a8bbf590da0223dacf75c7af015550565b81600160a060020a0316611bb582610de9565b600160a060020a031614611bc857600080fd5b600160a060020a038216600090815260036020526040902054611bf290600163ffffffff611c3816565b600160a060020a03909216600090815260036020908152604080832094909455918152600190915220805473ffffffffffffffffffffffffffffffffffffffff19169055565b600082821115611c4457fe5b50900390565b600081815260016020526040902054600160a060020a031615611c6c57600080fd5b6000818152600160208181526040808420805473ffffffffffffffffffffffffffffffffffffffff1916600160a060020a0388169081179091558452600390915290912054611cba91611398565b600160a060020a0390921660009081526003602052604090209190915550565b600160a060020a0316600090815260209190915260409020805460ff19169055565b611d0682826114cc565b611d10828261153b565b6040518190600090600160a060020a038516907fddf252ad1be2c89b69c2b068fc378daa952ba7f163c4a11628f55a4df523b3ef908390a45050565b600160a060020a0316600090815260209190915260409020805460ff19166001179055565b6000903b1190565b600160a060020a0382161515611d8e57600080fd5b611d988282611642565b6040518190600160a060020a038416906000907fddf252ad1be2c89b69c2b068fc378daa952ba7f163c4a11628f55a4df523b3ef908290a45050565b828054600181600116156101000203166002900490600052602060002090601f016020900481019282601f10611e1557805160ff1916838001178555611e42565b82800160010185558215611e42579182015b82811115611e42578251825591602001919060010190611e27565b50611e4e929150611eb6565b5090565b50805460018160011615610100020316600290046000825580601f10611e785750610d08565b601f016020900490600052602060002090810190610d089190611eb6565b815481835581811115610d2757600083815260209020610d279181019083015b6108cf91905b80821115611e4e5760008155600101611ebc56006d696e7465720000000000000000000000000000000000000000000000000000a165627a7a723058206483e5a8a74c05c31839feea84034553c7d2e2bbf78708d9aff3d67419b4b8cc0029",
  "source": "pragma solidity ^0.4.24;\n\nimport \"./base/ERC721RBACMintableToken.sol\";\n\n\ncontract ShakaCollectible is ERC721RBACMintableToken {\n  struct TokenStructure {\n    bytes6 mainColor;\n    bytes6 backgroundColor;\n    bytes6 borderColor;\n    string message;\n  }\n\n  uint256 public progressiveId;\n\n  // Mapping from token ID to the structures\n  mapping(uint256 => TokenStructure) structureIndex;\n\n  constructor(\n    string _name,\n    string _symbol\n  )\n  public\n  ERC721RBACMintableToken(_name, _symbol)\n  {}\n\n  function newToken(\n    address _beneficiary,\n    bytes6 _mainColor,\n    bytes6 _backgroundColor,\n    bytes6 _borderColor,\n    string _message\n  )\n  public\n  returns (uint256)\n  {\n    uint256 tokenId = progressiveId.add(1);\n    _mint(_beneficiary, tokenId);\n    structureIndex[tokenId] = TokenStructure(\n      _mainColor,\n      _backgroundColor,\n      _borderColor,\n      _message\n    );\n    progressiveId = tokenId;\n    return tokenId;\n  }\n\n  function getToken (uint256 tokenId)\n  public\n  view\n  returns (\n    address beneficiary,\n    bytes6 mainColor,\n    bytes6 backgroundColor,\n    bytes6 borderColor,\n    string message\n  )\n  {\n    require(\n      exists(tokenId),\n      \"Token must exists\"\n    );\n\n    TokenStructure storage token = structureIndex[tokenId];\n\n    beneficiary = ownerOf(tokenId);\n    mainColor = token.mainColor;\n    backgroundColor = token.backgroundColor;\n    borderColor = token.borderColor;\n    message = token.message;\n  }\n\n  /**\n   * @dev Only contract owner or token owner can burn\n   */\n  function burn(uint256 tokenId) public {\n    address tokenOwner = msg.sender == owner ? ownerOf(tokenId) : msg.sender;\n    super._burn(tokenOwner, tokenId);\n    delete structureIndex[tokenId];\n  }\n}\n",
  "sourcePath": "/Users/vittominacori/Projects/friendsfingers/shaka-collectible/contracts/token/ShakaCollectible.sol",
  "compiler": {
    "name": "solc",
    "version": "0.4.24+commit.e67f0147.Emscripten.clang"
  },
  "schemaVersion": "2.0.1",
  "updatedAt": "2018-08-19T20:58:19.477Z"
}